{
  "_format": "hh-sol-artifact-1",
  "contractName": "AdminAuth",
  "sourceName": "contracts/AdminAuth.sol",
  "abi": [
    {
      "inputs": [],
      "stateMutability": "nonpayable",
      "type": "constructor"
    },
    {
      "anonymous": false,
      "inputs": [
        {
          "indexed": true,
          "internalType": "string",
          "name": "registerNumber",
          "type": "string"
        },
        {
          "indexed": false,
          "internalType": "string",
          "name": "jsonHash",
          "type": "string"
        }
      ],
      "name": "CertificateAdded",
      "type": "event"
    },
    {
      "anonymous": false,
      "inputs": [
        {
          "indexed": true,
          "internalType": "string",
          "name": "registerNumber",
          "type": "string"
        }
      ],
      "name": "CertificateRemoved",
      "type": "event"
    },
    {
      "stateMutability": "payable",
      "type": "fallback"
    },
    {
      "inputs": [
        {
          "internalType": "string",
          "name": "_registerNumber",
          "type": "string"
        },
        {
          "internalType": "string",
          "name": "_jsonHash",
          "type": "string"
        }
      ],
      "name": "addCertificate",
      "outputs": [],
      "stateMutability": "nonpayable",
      "type": "function"
    },
    {
      "inputs": [
        {
          "internalType": "string",
          "name": "_registerNumber",
          "type": "string"
        }
      ],
      "name": "getCertificate",
      "outputs": [
        {
          "internalType": "string",
          "name": "",
          "type": "string"
        },
        {
          "internalType": "string",
          "name": "",
          "type": "string"
        },
        {
          "internalType": "uint256",
          "name": "",
          "type": "uint256"
        }
      ],
      "stateMutability": "view",
      "type": "function"
    },
    {
      "inputs": [
        {
          "internalType": "address",
          "name": "",
          "type": "address"
        }
      ],
      "name": "isAdmin",
      "outputs": [
        {
          "internalType": "bool",
          "name": "",
          "type": "bool"
        }
      ],
      "stateMutability": "pure",
      "type": "function"
    },
    {
      "inputs": [],
      "name": "owner",
      "outputs": [
        {
          "internalType": "address",
          "name": "",
          "type": "address"
        }
      ],
      "stateMutability": "view",
      "type": "function"
    },
    {
      "inputs": [
        {
          "internalType": "string",
          "name": "_registerNumber",
          "type": "string"
        }
      ],
      "name": "removeCertificate",
      "outputs": [],
      "stateMutability": "nonpayable",
      "type": "function"
    },
    {
      "stateMutability": "payable",
      "type": "receive"
    }
  ],
  "bytecode": "0x608060405234801561001057600080fd5b50336000806101000a81548173ffffffffffffffffffffffffffffffffffffffff021916908373ffffffffffffffffffffffffffffffffffffffff160217905550610df6806100606000396000f3fe60806040526004361061004e5760003560e01c806324d7806c14610057578063546a16d5146100945780638da5cb5b146100bd578063e24f2ce7146100e8578063ed0f2e751461011157610055565b3661005557005b005b34801561006357600080fd5b5061007e600480360381019061007991906105d8565b610150565b60405161008b9190610620565b60405180910390f35b3480156100a057600080fd5b506100bb60048036038101906100b69190610781565b61015b565b005b3480156100c957600080fd5b506100d2610259565b6040516100df91906107d9565b60405180910390f35b3480156100f457600080fd5b5061010f600480360381019061010a91906107f4565b61027d565b005b34801561011d57600080fd5b5061013860048036038101906101339190610781565b6103b0565b60405161014793929190610904565b60405180910390f35b600060019050919050565b600060018260405161016d9190610985565b90815260200160405180910390206000018054610189906109cb565b9050036101cb576040517f08c379a00000000000000000000000000000000000000000000000000000000081526004016101c290610a6e565b60405180910390fd5b6001816040516101db9190610985565b9081526020016040518091039020600080820160006101fa9190610509565b60018201600061020a9190610509565b60028201600090555050806040516102229190610985565b60405180910390207fc5a67269dbb03740298b7fab9f5bbaae5807a91f18cde3ea21694e3e64e1d1c660405160405180910390a250565b60008054906101000a900473ffffffffffffffffffffffffffffffffffffffff1681565b600060018360405161028f9190610985565b908152602001604051809103902060000180546102ab906109cb565b9050146102ed576040517f08c379a00000000000000000000000000000000000000000000000000000000081526004016102e490610b00565b60405180910390fd5b6040518060600160405280838152602001828152602001428152506001836040516103189190610985565b9081526020016040518091039020600082015181600001908161033b9190610ccc565b5060208201518160010190816103519190610ccc565b50604082015181600201559050508160405161036d9190610985565b60405180910390207f9fad722725d0a8d47409199aaef3c4642bd4796564c69f37aa36d86574346471826040516103a49190610d9e565b60405180910390a25050565b6060806000806001856040516103c69190610985565b90815260200160405180910390209050806000018160010182600201548280546103ef906109cb565b80601f016020809104026020016040519081016040528092919081815260200182805461041b906109cb565b80156104685780601f1061043d57610100808354040283529160200191610468565b820191906000526020600020905b81548152906001019060200180831161044b57829003601f168201915b5050505050925081805461047b906109cb565b80601f01602080910402602001604051908101604052809291908181526020018280546104a7906109cb565b80156104f45780601f106104c9576101008083540402835291602001916104f4565b820191906000526020600020905b8154815290600101906020018083116104d757829003601f168201915b50505050509150935093509350509193909250565b508054610515906109cb565b6000825580601f106105275750610546565b601f0160209004906000526020600020908101906105459190610549565b5b50565b5b8082111561056257600081600090555060010161054a565b5090565b6000604051905090565b600080fd5b600080fd5b600073ffffffffffffffffffffffffffffffffffffffff82169050919050565b60006105a58261057a565b9050919050565b6105b58161059a565b81146105c057600080fd5b50565b6000813590506105d2816105ac565b92915050565b6000602082840312156105ee576105ed610570565b5b60006105fc848285016105c3565b91505092915050565b60008115159050919050565b61061a81610605565b82525050565b60006020820190506106356000830184610611565b92915050565b600080fd5b600080fd5b6000601f19601f8301169050919050565b7f4e487b7100000000000000000000000000000000000000000000000000000000600052604160045260246000fd5b61068e82610645565b810181811067ffffffffffffffff821117156106ad576106ac610656565b5b80604052505050565b60006106c0610566565b90506106cc8282610685565b919050565b600067ffffffffffffffff8211156106ec576106eb610656565b5b6106f582610645565b9050602081019050919050565b82818337600083830152505050565b600061072461071f846106d1565b6106b6565b9050828152602081018484840111156107405761073f610640565b5b61074b848285610702565b509392505050565b600082601f8301126107685761076761063b565b5b8135610778848260208601610711565b91505092915050565b60006020828403121561079757610796610570565b5b600082013567ffffffffffffffff8111156107b5576107b4610575565b5b6107c184828501610753565b91505092915050565b6107d38161059a565b82525050565b60006020820190506107ee60008301846107ca565b92915050565b6000806040838503121561080b5761080a610570565b5b600083013567ffffffffffffffff81111561082957610828610575565b5b61083585828601610753565b925050602083013567ffffffffffffffff81111561085657610855610575565b5b61086285828601610753565b9150509250929050565b600081519050919050565b600082825260208201905092915050565b60005b838110156108a657808201518184015260208101905061088b565b60008484015250505050565b60006108bd8261086c565b6108c78185610877565b93506108d7818560208601610888565b6108e081610645565b840191505092915050565b6000819050919050565b6108fe816108eb565b82525050565b6000606082019050818103600083015261091e81866108b2565b9050818103602083015261093281856108b2565b905061094160408301846108f5565b949350505050565b600081905092915050565b600061095f8261086c565b6109698185610949565b9350610979818560208601610888565b80840191505092915050565b60006109918284610954565b915081905092915050565b7f4e487b7100000000000000000000000000000000000000000000000000000000600052602260045260246000fd5b600060028204905060018216806109e357607f821691505b6020821081036109f6576109f561099c565b5b50919050565b7f436572746966696361746520776974682074686973207265676973746572206e60008201527f756d62657220646f6573206e6f74206578697374000000000000000000000000602082015250565b6000610a58603483610877565b9150610a63826109fc565b604082019050919050565b60006020820190508181036000830152610a8781610a4b565b9050919050565b7f436572746966696361746520776974682074686973207265676973746572206e60008201527f756d62657220616c726561647920657869737473000000000000000000000000602082015250565b6000610aea603483610877565b9150610af582610a8e565b604082019050919050565b60006020820190508181036000830152610b1981610add565b9050919050565b60008190508160005260206000209050919050565b60006020601f8301049050919050565b600082821b905092915050565b600060088302610b827fffffffffffffffffffffffffffffffffffffffffffffffffffffffffffffffff82610b45565b610b8c8683610b45565b95508019841693508086168417925050509392505050565b6000819050919050565b6000610bc9610bc4610bbf846108eb565b610ba4565b6108eb565b9050919050565b6000819050919050565b610be383610bae565b610bf7610bef82610bd0565b848454610b52565b825550505050565b600090565b610c0c610bff565b610c17818484610bda565b505050565b5b81811015610c3b57610c30600082610c04565b600181019050610c1d565b5050565b601f821115610c8057610c5181610b20565b610c5a84610b35565b81016020851015610c69578190505b610c7d610c7585610b35565b830182610c1c565b50505b505050565b600082821c905092915050565b6000610ca360001984600802610c85565b1980831691505092915050565b6000610cbc8383610c92565b9150826002028217905092915050565b610cd58261086c565b67ffffffffffffffff811115610cee57610ced610656565b5b610cf882546109cb565b610d03828285610c3f565b600060209050601f831160018114610d365760008415610d24578287015190505b610d2e8582610cb0565b865550610d96565b601f198416610d4486610b20565b60005b82811015610d6c57848901518255600182019150602085019450602081019050610d47565b86831015610d895784890151610d85601f891682610c92565b8355505b6001600288020188555050505b505050505050565b60006020820190508181036000830152610db881846108b2565b90509291505056fea2646970667358221220a5c4478beaa56e61efae0c8777ec6a582ca8fbef65e8ee640710da9dd0a5af4064736f6c63430008180033",
  "linkReferences": {},
  "deployedLinkReferences": {}
}